:020000040800F2
:10000000FF4F00204D0100084D1700084F17000852
:10001000511700085317000855170008000000008A
:10002000000000000000000000000000571700085A
:1000300059170008000000005B1700085D17000852
:100040009501000895010008950100089501000838
:100050009501000895010008950100087117000836
:100060009501000895010008950100089501000818
:100070009501000895010008950100089501000808
:1000800095010008950100089501000895010008F8
:1000900095010008950100089501000895010008E8
:1000A00095010008950100089501000895010008D8
:1000B00095010008950100089501000895010008C8
:1000C00095010008950100089501000895010008B8
:1000D00095010008950100089501000895010008A8
:1000E0006517000895010008950100080000000050
:1000F0000000000000000000000000000000000000
:0C01000000000000000000005FF808F1A3
:10010C0010B5054C237833B9044B13B10448AFF345
:10011C0000800123237010BD3C040020000000006F
:10012C00F81A000808B5034B1BB103490348AFF399
:10013C00008008BD0000000040040020F81A0008F0
:10014C00002103E00B4B5B58435004310A480B4B26
:10015C0042189A42F6D30A4A02E0002342F8043BC2
:10016C00084B9A42F9D300F011F801F0D9FB01F0D9
:10017C00AFFB7047541B0008000000203C0400201B
:10018C003C04002074050020FEE700000F4B1A68A9
:10019C0042F001021A6059680D4A0A405A601A6806
:1001AC0022F0847222F480321A601A6822F48022BF
:1001BC001A605A6822F4FE025A604FF41F029A60C9
:1001CC00044B4FF000629A60704700BF0010024071
:1001DC000000FFF800ED00E010B504460E4B187857
:1001EC004FF47A73B3FBF0F30C4A1068B0FBF3F0E6
:1001FC0000F08EFF68B90F2C01D901200AE0002213
:10020C0021464FF0FF3000F03DFF054B1C600020F5
:10021C0000E0012010BD00BF040000200000002001
:10022C000800002008B5074A136843F01003136058
:10023C00032000F015FF0020FFF7CEFF01F0ACF912
:10024C00002008BD00200240034A1168034B1B78B4
:10025C000B441360704700BF5804002004000020BA
:10026C00014B1868704700BF5804002082B0084B3F
:10027C001B68084AA2FB03235B0A00FB03F30193F0
:10028C0000BF019B5A1E0192002BF9D102B070479E
:10029C0000000020D34D6210002800F0F18170B5F1
:1002AC0082B00446036813F0010F2CD0994B5B68A5
:1002BC0003F00C03042B1DD0964B5B6803F00C036E
:1002CC00082B12D06368B3F5803F41D0002B55D179
:1002DC0003F1804303F504331A6822F480321A6068
:1002EC001A6822F480221A6037E08A4B5B6813F498
:1002FC00803FE7D0874B1B6813F4003F03D0636843
:10030C00002B00F0BF81236813F0020F75D0814BD6
:10031C005B6813F00C0F5FD07E4B5B6803F00C0333
:10032C00082B54D02369002B00F08A807A4B0122D1
:10033C001A60FFF795FF0546764B1B6813F0020F0A
:10034C0075D1FFF78DFF401B0228F5D903209EE1E4
:10035C00704A136843F480331360636843B3FFF748
:10036C007FFF05466B4B1B6813F4003FCBD1FFF7A7
:10037C0077FF401B6428F5D9032088E1B3F5A02F43
:10038C0009D0644B1A6822F480321A601A6822F47D
:10039C0080221A60E1E703F18043A3F53C331A682D
:1003AC0042F480221A601A6842F480321A60D4E750
:1003BC00FFF756FF0546574B1B6813F4003FA2D0BE
:1003CC00FFF74EFF401B6428F5D903205FE1514B2A
:1003DC005B6813F4803FA5D14E4B1B6813F0020FE2
:1003EC0003D02369012B40F04F814A4A136823F054
:1003FC00F803616943EAC1031360236813F0080F23
:10040C0033D0A369002B5CD0434B0122C3F880246A
:10041C00FFF726FF05463F4B5B6A13F0020F21D115
:10042C00FFF71EFF401B0228F5D903202FE1394AA4
:10043C00136823F0F803616943EAC1031360DCE736
:10044C00354B00221A60FFF70BFF0546314B1B683A
:10045C0013F0020FD1D0FFF703FF401B0228F5D990
:10046C00032014E10120FFF701FF236813F0040FB0
:10047C0000F09680274BDB6913F0805F34D1254B5D
:10048C00DA6942F08052DA61DB6903F08053019340
:10049C00019B0125214B1B6813F4807F26D0E36858
:1004AC00012B3DD0002B53D103F1804303F50433D2
:1004BC001A6A22F001021A621A6A22F004021A6203
:1004CC0033E0154B0022C3F88024FFF7C9FE054624
:1004DC00104B5B6A13F0020FC7D0FFF7C1FE401B35
:1004EC000228F5D90320D2E00025D3E70B4A136884
:1004FC0043F480731360FFF7B3FE0646074B1B688B
:10050C0013F4807FCBD1FFF7ABFE801B6428F5D9A9
:10051C000320BCE00010024000004242007000408A
:10052C005F4A136A43F001031362E36833B3FFF7C6
:10053C0097FE06465A4B1B6A13F0020F2FD1FFF79A
:10054C008FFE801B41F288339842F3D903209EE042
:10055C00052B09D0524B1A6A22F001021A621A6A50
:10056C0022F004021A62E0E74D4B1A6A42F00402D0
:10057C001A621A6A42F001021A62D6E7FFF770FE9D
:10058C000646474B1B6A13F0020F08D0FFF768FEB4
:10059C00801B41F288339842F3D9032077E0E5B908
:1005AC00E369002B72D03E4A526802F00C02082A12
:1005BC0056D0022B17D03B4B00221A66FFF750FE89
:1005CC000446374B1B6813F0007F47D0FFF748FEFB
:1005DC00001B0228F5D9032059E0314AD36923F0D6
:1005EC008053D361DCE72F4B00221A66FFF738FEED
:1005FC0005462B4B1B6813F0007F06D0FFF730FE2F
:10060C00401B0228F5D9032041E0236AB3F5803F53
:10061C001AD023494B6823F47413226A606A02438C
:10062C0013434B601F4B01221A66FFF719FE044659
:10063C001B4B1B6813F0007F0ED1FFF711FE001B44
:10064C000228F5D9032022E0154A536823F400331D
:10065C00A1680B435360DCE7002018E0002016E093
:10066C00012B16D00E4B5B6803F48031226A914249
:10067C0011D103F47013626A93420ED1002006E08C
:10068C0001207047012002E0012000E0002002B0B0
:10069C0070BD0120FBE70120F9E70120F7E700BF5F
:1006AC00001002400000424286B0194B0FCB0DF1F6
:1006BC00180C0CE90F0040F20123ADF80430154B77
:1006CC005A6802F00C03042B1CD0082B1CD1C2F36B
:1006DC00834318336B4413F8100C12F4803F0DD085
:1006EC000C4B5B68C3F3404318336B4413F8143C56
:1006FC00094A02FB00F0B0FBF3F006E0074B03FBEA
:10070C0000F002E0044800E0054806B0704700BF66
:10071C00281B0008001002400024F40000093D00D2
:10072C0000127A00002800F0A08070B50D46044637
:10073C00524B1B6803F007038B420BD24F4A1368D2
:10074C0023F007030B431360136803F007038B427A
:10075C0040F08D80236813F0020F17D013F0040FB4
:10076C0004D0474A536843F4E0635360236813F0A2
:10077C00080F04D0424A536843F460535360404A14
:10078C00536823F0F003A1680B435360236813F004
:10079C00010F31D06368012B20D0022B25D0384AB1
:1007AC00126812F0020F64D035494A6822F0030235
:1007BC0013434B60FFF754FD0646314B5B6803F067
:1007CC000C036268B3EB820F16D0FFF749FD801B58
:1007DC0041F288339842F0D9032045E0284A126848
:1007EC0012F4003FE0D101203EE0254A126812F0DD
:1007FC00007FD9D1012037E0204B1B6803F00703A1
:10080C00AB420AD91D4A136823F007032B4313602C
:10081C00136803F00703AB422DD1236813F0040FC8
:10082C0006D0174A536823F4E063E1680B43536026
:10083C00236813F0080F07D0114A536823F4605350
:10084C00216943EAC1035360FFF72EFF0C4B5B6831
:10085C00C3F303130B4AD35CD8400B4B18600B4B00
:10086C001868FFF7B9FC002070BD0120704701200B
:10087C00FAE70120F8E70120F6E700BF002002406C
:10088C0000100240101B000800000020080000208F
:10089C00014B1868704700BF0000002008B5FFF737
:1008AC00F7FF044B5B68C3F30223034AD35CD840C5
:1008BC0008BD00BF00100240201B000808B5FFF760
:1008CC00E7FF044B5B68C3F3C223034AD35CD840F5
:1008DC0008BD00BF00100240201B000870B582B09C
:1008EC000024A446A6E0804DAA4210D007D97F4D23
:1008FC00AA420CD005F58035AA4208D013E0A5F524
:10090C008015AA4203D005F57025AA4207D18A6842
:10091C00002A58D0012A51D04361082403E0A5F5E0
:10092C008015AA42F3D0BEF1FF0F4ED80646BEF199
:10093C00FF0F4CD84FEA8C0233680F25954023EA01
:10094C00050304FA02F2134333604B6813F0805F23
:10095C006ED0674B9A6942F001029A619B6903F071
:10096C0001030193019B4FEA9C02951C614B53F8C8
:10097C0025600CF003039D000F23AB4026EA030611
:10098C005D4B984229D003F58063984200F08E802D
:10099C0003F58063984200F08B8003F580639842E6
:1009AC0019D004231AE0CC68BDE7CC680434BAE74C
:1009BC00CC680834B7E7CC680C34B4E7036108247E
:1009CC00B1E70024AFE70424ADE7061DAFE7ACF1B7
:1009DC0008029200B0E7032300E00023AB4033434E
:1009EC000232444D45F822304B6813F4803F61D0FD
:1009FC00424A136843EA0E0313604B6813F4003F3A
:100A0C005ED03E4A536843EA0E0353604B6813F4BE
:100A1C00801F5BD0394A936843EA0E0393604B689E
:100A2C0013F4001F58D0354AD36843EA0E03D36041
:100A3C000CF1010C0A6832FA0CF353D0012303FABF
:100A4C000CF302EA030E33EA0202F1D14A68122ACD
:100A5C003FF649AF122A3FF666AF01A555F822F0D2
:100A6C001B090008B3090008BD090008CF090008DC
:100A7C00330900083309000833090008330900085A
:100A8C00330900083309000833090008330900084A
:100A9C00330900083309000833090008330900083A
:100AAC0033090008B7090008C3090008012395E7BA
:100ABC00022393E7114A136823EA0E0313609CE7A1
:100ACC000E4A536823EA0E0353609FE70B4A936860
:100ADC0023EA0E039360A2E7084AD36823EA0E03C5
:100AEC00D360A5E702B070BD0000221000003110E9
:100AFC0000100240000001400008014000040140C9
:100B0C007047000008B5054B5B69034200D108BD76
:100B1C00024B5861FFF7F4FFF9E700BF00040140F6
:100B2C0070B4036A23F001030362036A46688269A6
:100B3C0022F073020C6844EA020523F002028B686F
:100B4C0013430D4CA04209D00B4CA0420DD0466073
:100B5C0085614A684263036270BC704723F00803E6
:100B6C00CA68134323F00403EEE726F440764A697F
:100B7C0032438E691643EAE7002C014030B4036A15
:100B8C0023F480730362036A4568C26922F073021E
:100B9C000C68224323F400738C6843EA04230F4C43
:100BAC00A04209D00D4CA0420ED04560C2614A68EB
:100BBC00C263036230BC704723F40063CC6843EA21
:100BCC00042323F48063EDE725F440554C6945EA92
:100BDC0004158C6945EA0415E7E700BF002C0140B9
:100BEC0030B4036A23F480530362036A4468C26915
:100BFC0022F4E6420D6842EA052223F400538D6884
:100C0C0043EA0533074DA84206D04460C2614A68E6
:100C1C000264036230BC704724F480444D6944EA9A
:100C2C008514F2E7002C014003681B4A90420AD05D
:100C3C00B0F1804F07D0A2F59432904203D002F568
:100C4C008062904203D123F070034A681343124A26
:100C5C0090420AD0B0F1804F07D0A2F59432904266
:100C6C0003D002F58062904203D123F44073CA682A
:100C7C00134323F080034A69134303608B68C362F8
:100C8C000B688362044B984202D001234361704786
:100C9C000B690363F9E700BF002C014040B310B5AA
:100CAC00044690F83D30F3B1022384F83D302146E0
:100CBC0051F8040BFFF7B8FF012384F8463084F891
:100CCC003E3084F83F3084F8403084F8413084F86A
:100CDC00423084F8433084F8443084F8453084F84A
:100CEC003D30002010BD80F83C3000F0A7FCDBE765
:100CFC000120704730B4036A23F010030362036AC7
:100D0C004468826922F4E6420D6842EA052223F027
:100D1C0020038D6843EA05130E4DA84209D00D4DF2
:100D2C00A8420ED0446082614A688263036230BC80
:100D3C00704723F08003CD6843EA051323F040038A
:100D4C00EDE724F440644D6944EA85048D6944EA76
:100D5C008504E7E7002C014038B590F83C30012BB6
:100D6C0060D004460D46012380F83C300C2A1AD87A
:100D7C00DFE802F0071919191D1919193119191978
:100D8C0044000068FFF7CCFE2268936943F0080327
:100D9C0093612268936923F0040393612268936939
:100DAC0029690B439361002084F83C0038BD00682E
:100DBC00FFF7A0FF2268936943F4006393612268F4
:100DCC00936923F48063936122689369296943EAE8
:100DDC0001239361E7E70068FFF7D0FE2268D3692F
:100DEC0043F00803D3612268D36923F00403D36171
:100DFC002268D36929690B43D361D4E70068FFF7F4
:100E0C00EFFE2268D36943F40063D3612268D3698F
:100E1C0023F48063D3612268D369296943EA0123EF
:100E2C00D361C0E70220C1E710B50446026813691C
:100E3C0023F44053C1680B43136183680269134365
:100E4C0042691A430168CB6823F4B05323F00C03B6
:100E5C001343CB600268536923F4407381690B43DD
:100E6C0053610268134B9A4220D0FFF717FD0246DC
:100E7C0002EB820202EB820263689B00B2FBF3F28C
:100E8C000D48A0FB02314909642303FB11231B010C
:100E9C003233A0FB03235B0903F0F00202EB0112D7
:100EAC0003F00F03216813448B6010BDFFF706FDA0
:100EBC000246DDE7003801401F85EB512DE9F84370
:100ECC0005460F4616469946DDF820802C682468A6
:100EDC0037EA04030CBF4FF0010C4FF0000CB44583
:100EEC001FD1B8F1FF3FF1D0B8F1000F05D0FFF7DB
:100EFC00B7F9A0EB09004045E8D92A68D36823F478
:100F0C00D073D3602A68536923F001035361202303
:100F1C0085F83D3085F83E30002385F83C300320C1
:100F2C0000E00020BDE8F88358B310B5044690F8F3
:100F3C003D300BB3242384F83D302268D36823F46E
:100F4C000053D3602046FFF76FFF2268136923F428
:100F5C00904313612268536923F02A03536122687A
:100F6C00D36843F40053D36000202064202384F81A
:100F7C003D3084F83E3010BD80F83C3000F07EFBF4
:100F8C00D8E7012070472DE9F04182B01E4690F859
:100F9C003D30DBB2202B54D104460D46904600293F
:100FAC0053D0002A53D090F83C30012B51D0012360
:100FBC0080F83C3000230364212380F83D30FFF798
:100FCC004FF90746A4F82480A4F82680A368B3F54B
:100FDC00805F05D04FF00008002384F83C3012E00D
:100FEC00236913B14FF00008F6E7A8460025F3E794
:100FFC0038F8023B2268C3F308035360E28C92B2C8
:10100C00013A92B2E284E38C9BB273B100963B46F8
:10101C00002280212046FFF751FFE0B9002DE7D0D8
:10102C0015F8012B23685A60E8E700963B4600222E
:10103C0040212046FFF742FF78B9202384F83D3049
:10104C0000E0022002B0BDE8F0810120FAE70120A7
:10105C00F8E70220F6E70320F4E70320F2E70000AC
:10106C00074AD36823F4E0631B041B0C000200F452
:10107C00E060034343F0BF6343F40033D360704735
:10108C0000ED00E000B5194BDB68C3F30223C3F19C
:10109C00070CBCF1040F28BF4FF0040C03F1040E35
:1010AC00BEF1060F18D9033B4FF0FF3E0EFA0CFCB5
:1010BC0021EA0C0199400EFA03F322EA03031943C7
:1010CC0000280BDB0901C9B200F1604000F561405A
:1010DC0080F800135DF804FB0023E5E700F00F0037
:1010EC000901C9B2024B1954F4E700BF00ED00E04E
:1010FC0014ED00E0002807DB00F01F02400901237B
:10110C009340024A42F82030704700BF00E100E0F3
:10111C000138B0F1807F0BD24FF0E0235861054AC3
:10112C00F02182F823100020986107221A61704781
:10113C000120704700ED00E030B482B00022019233
:10114C0090F82420012A00F091800346012280F8B7
:10115C0024204A68062A2DD80468606B02EB8202B0
:10116C00053A4FF01F0C0CFA02FC20EA0C000D683B
:10117C0005FA02F2024362630A68092A3AD91C682A
:10118C00E06802EB42021E3A4FF0070C0CFA02FC2C
:10119C0020EA0C008D6805FA02F20243E2600A684C
:1011AC00103A012A36D90020002283F8242002B0FC
:1011BC0030BC70470C2A0ED80568286B02EB8202F3
:1011CC00233A1F24944020EA04000C6804FA02F22B
:1011DC0002432A63D0E70568E86A02EB8202413ACF
:1011EC001F24944020EA04000C6804FA02F2024323
:1011FC00EA62C1E71C68206902EB42024FF0070C5F
:10120C000CFA02FC20EA0C008D6805FA02F202438B
:10121C002261C4E71A681648824205D09A6A42F0E5
:10122C0020029A620120BFE7906810F4000F1BD1D6
:10123C00906840F4000090600A68102A01D00020E9
:10124C00B2E70C4A12680C49A1FB0212920C02EB99
:10125C0082025200019202E0019A013A0192019A33
:10126C00002AF9D100209FE700209DE702209EE78D
:10127C00002401400000002083DE1B4338B50368C6
:10128C009A6812F0010F01D1002038BD04469A680B
:10129C0022F001029A60FEF7E3FF054623689B6883
:1012AC0013F0010F13D0FEF7DBFF431B022BF5D914
:1012BC0023689B6813F0010FF0D0A36A43F010036E
:1012CC00A362E36A43F00103E3620120DDE700203F
:1012DC00DBE7000000287BD070B50446836A002B46
:1012EC004DD02046FFF7CAFFA36A13F0100369D153
:1012FC00002867D1A26A22F4885222F0020242F03E
:10130C000202A2626268E1690A43217B42EA41025D
:10131C00A568B5F5807F02D0012D36D01D46267DFF
:10132C00012E35D02668716821F46941294371601A
:10133C002568AE68274931401143A960A168B1F511
:10134C00807F01D0012902D12369013B1B0525684F
:10135C00E96A21F470010B43EB62236899681E4B18
:10136C000B409A4225D0A36A23F0120343F01003DA
:10137C00A362E36A43F00103E362012027E0C36246
:10138C0080F8243000F02AF9ABE74FF48075C6E7FB
:10139C0031B9A169013945EA413141F40065C1E730
:1013AC00A16A41F02001A162E16A41F00101E16210
:1013BC00B8E70023E362A36A23F0030343F00103BD
:1013CC00A36204E0A36A43F01003A362012070BD82
:1013DC0001207047FDF7E1FFFE0E1FFF002800F013
:1013EC00CC8070B5044690F83D30002B77D0242388
:1013FC0084F83D302268136823F0010313602268DF
:10140C00136843F4004313602268136823F4004309
:10141C001360FFF743FA62685A4B9A4264D85A4BEE
:10142C0098428CBF00230123002B40F0A880574921
:10143C00A1FB00318B0C25686A6822F03F0242EA5E
:10144C0091426A6021680A6A22F03F0266684D4D3B
:10145C00AE424FD8013313430B622168CA6922F4A0
:10146C004F4222F0FF026668464B9E424CD8431E08
:10147C007600B3FBF6F3013340F6FC70034278D0F0
:10148C00C3F30B031343CB6121680B6823F0C00338
:10149C00E269206A024313430B6021688B6823F4D2
:1014AC00034323F0FF032269E068024313438B607C
:1014BC002168CB6823F0FF036269A06902431343E0
:1014CC00CB602268136843F0010313600020206492
:1014DC00202384F83D30206384F83E0070BD80F8F2
:1014EC003C3000F0FBF882E7294B98428CBF00237C
:1014FC00012399E74FF4967505FB03F3254DA5FBE6
:10150C0003539B090133A6E7A368BBB9451E06EB41
:10151C00460CB5FBFCF50135C5F30B05B5FA85F5A5
:10152C006D0945BBC3B9013806EB4603B0FBF3F3B9
:10153C000133C3F30B0343F40043A3E7451E06EB4F
:10154C00860C0CEB8C0CB5FBFCF50135C5F30B05CF
:10155C00B5FA85F56D09E4E7013806EB860303EB74
:10156C008303B0FBF3F30133C3F30B0343F44043A6
:10157C0088E7042386E7012384E7012070470120D4
:10158C00ACE700BFA08601007F841E0083DE1B43F6
:10159C00FF083D00D34D621082B00E4B9A6942F0A9
:1015AC0001029A619A6902F001020092009ADA69CA
:1015BC0042F08052DA61DB6903F080530193019BA6
:1015CC00054A536823F0E06343F00073536002B0A4
:1015DC00704700BF001002400000014000B587B00A
:1015EC00002302930393049305930268114B9A42D0
:1015FC0002D007B05DF804FB03F56C439A6942F422
:10160C0000729A619A6902F400720092009A9A69C7
:10161C0042F008029A619B6903F008030193019B55
:10162C00012302930323039302A90348FFF756F9FE
:10163C00DFE700BF00240140000C014002680E4BA4
:10164C009A4200D0704700B583B003F564439A69A1
:10165C0042F400629A619B6903F400630193019B5D
:10166C00002211461820FFF70DFD1820FFF742FD50
:10167C0003B05DF804FB00BF002C014000B587B03F
:10168C00002302930393049305930268114B9A422F
:10169C0002D007B05DF804FB03F5E633DA6942F4D7
:1016AC000032DA61DA6902F400320092009A9A6927
:1016BC0042F004029A619B6903F004030193019BBD
:1016CC000C23029302230393059302A90248FFF70C
:1016DC0005F9DEE7004400400008014010B586B073
:1016EC00002302930393049305930268114B9A42CF
:1016FC0001D006B010BD104CA36943F00803A361E0
:10170C00A36903F008030093009BC02302931223E8
:10171C0003930323059302A90848FFF7DFF8E36955
:10172C0043F40013E361E36903F400130193019B99
:10173C00DFE700BF0054004000100240000C0140E5
:10174C00FEE7FEE7FEE7FEE7FEE7704770477047EF
:10175C0008B5FEF779FD08BD08B54FF40050FFF74A
:10176C00D1F908BD08B50220FFF7CCF908BD00007F
:10177C0030B589B00D4C0E4B23604723636044F6A3
:10178C001F63E3600025A5602046FFF787FA6023FE
:10179C00019340F2DC53029303950595082201A9AD
:1017AC002046FFF7D9FA09B030BD00BFE004002095
:1017BC00002C014030B585B00023019302930393B4
:1017CC000C4C0D4A2260A360237323754FF46022E6
:1017DC00E2616360012525612046FFF77BFD08234C
:1017EC00019302950223039301A92046FFF7A4FC61
:1017FC0005B030BD5C0400200024014072B6FEE749
:10180C0008B50A480A4B03604FF4E13343600023E8
:10181C008360C36003610C2242618361C361FFF783
:10182C0083FB00B908BDFFF7E9FF00BF28050020C6
:10183C000044004008B50A480A4B03600A4B436059
:10184C0000238360C3604FF4804202614361836173
:10185C00C3610362FFF7C2FD00B908BDFFF7CEFFFD
:10186C008C04002000540040A086010000B591B00B
:10187C002822002106A800F077F800230193029398
:10188C00039304930593012306934FF4803207923C
:10189C000A9302230D934FF4E0130F9306A8FEF75F
:1018AC00FBFC80B90F2301930221029100230393C7
:1018BC004FF480620492059301A8FEF733FF20B920
:1018CC0011B05DF804FBFFF799FFFFF797FF0000DD
:1018DC0008B5FEF7A7FCFFF7C9FFFFF791FFFFF76D
:1018EC0047FFFFF767FFFFF7A5FFFEF7B9FC094BB2
:1018FC001B68C01AB0F57A7FF7D34FF0FF3307227D
:10190C0005490648FFF73FFBFEF7AAFC014B1860A0
:10191C00EBE700BF6C0500203C1B000828050020ED
:10192C0070B50D4E0D4D761BB61006D0002455F833
:10193C00043B01349847A642F9D1094E094D00F0F9
:10194C00D5F8761BB61006D0002455F8043B0134AC
:10195C009847A642F9D170BD481B0008481B0008E7
:10196C00501B0008481B0008830730B548D0541E94
:10197C00002A3FD00346CAB201E0013C3AD303F837
:10198C00012B9D07F9D1032C2DD9CDB245EA0525A4
:10199C000F2C45EA054536D9A4F1100222F00F0CA4
:1019AC0003F1200EE6444FEA121C03F1100242E947
:1019BC00045542E9025510327245F8D10CF101027E
:1019CC0014F00C0F03EB021204F00F0C13D0ACF15B
:1019DC00040323F003030433134442F8045B9342DF
:1019EC00FBD10CF003042CB1CAB21C4403F8012B3C
:1019FC009C42FBD130BD64461346002CF4D1F9E770
:101A0C0003461446BFE71A46A446E0E7024B13B15F
:101A1C00024800F005B8704700000000391A0008B1
:101A2C00002301461A46184600F01AB838B5084B80
:101A3C00084D5B1B9C1007D0043B1D44013C55F822
:101A4C0004399847002CF9D1BDE8384000F054B85F
:101A5C00541B0008501B0008704700BF704700BFA4
:101A6C002DE9F047DFF87CA00646DAF8000098462E
:101A7C000F469146FFF7F0FF1B4B1B68D3F848410C
:101A8C0024B365681F2D26DC5EB96B1C0235DAF8B1
:101A9C000000636044F82570FFF7E0FF0020BDE80C
:101AAC00F087012304EB8501C1F88890D4F88821D4
:101ABC00AB401A43022EC4F88821C1F80881E4D146
:101ACC00D4F88C211343C4F88C31DEE703F5A674EB
:101ADC00C3F84841D5E7DAF80000FFF7BFFF4FF035
:101AEC00FF30DCE738040020441B0008F8B500BFC9
:101AFC00F8BC08BC9E467047F8B500BFF8BC08BCE3
:041B0C009E4670473A
:101B1000000000000000000001020304060708099D
:101B2000000000000102030402030405060708097F
:101B30000A0B0C0D0E0F10100000000068656C6C95
:081B40006F0D0A0010000020E7
:081B4800191A00083101000820
:041B50000D0100087B
:101B54000024F40001000000100000000000000058
:101B640000000000FC02002064030020CC030020DD
:101B74000000000000000000000000000000000061
:101B84000000000000000000000000000000000051
:101B94000000000000000000000000000000000041
:101BA4000000000000000000000000000000000031
:101BB4000000000000000000000000000000000021
:101BC4000000000000000000000000000000000011
:101BD4000000000000000000000000000000000001
:101BE40000000000000000000000000000000000F1
:101BF40000000000000000000000000000000000E1
:101C040000000000000000000100000000000000CF
:101C14000E33CDAB34126DE6ECDE05000B00000094
:101C240000000000000000000000000000000000B0
:101C340000000000000000000000000000000000A0
:101C44000000000000000000000000000000000090
:101C54000000000000000000000000000000000080
:0C1F8400000000000000000070050020BC
:040000050800014DA1
:00000001FF
